:020000020000FC
:040000000C94280430
:040014000C94B30491
:040034000C945504CF
:040048000C948A0486
:10006800189503E000937E00089500E400937C0057
:100078000FEE00937A0006E000937B0000917A006F
:1000880006FDFCCF109178000091790010930301D0
:100098000093020120E000937A00089521E4209360
:1000A8007C002FEE20937A0026E020937B0020919D
:1000B8007A0026FDFCCF20917800309179002093BA
:1000C80001013093000120E020937A00089503EAAB
:1000D800009380000AE00093810001E000936F0024
:1000E80000E0009389000093880000938B00009340
:1000F8008A00089507E610E01093C5000093C40035
:1001080008E90093C10006E00093C2000895A09199
:10011800C000A5FFFCCF08950091110116E5011359
:1001280002C00E942D0119E4011302C00E94E500DB
:1001380010E5011308950E94A2000895D0900601C9
:10014800C09007010E9420030E948B0040E5409365
:10015800C6000E948B0040E24093C6000E948B00BC
:100168004DE34093C6000E948B0040E24093C600D6
:100178000E9470010E948B0040E24093C6000E94DA
:100188008B0047E54093C6000E948B0041E44093F2
:10019800C6000E948B0044E54093C6000E948B0075
:1001A80044E54093C6000E948B004AE04093C60095
:1001B8000E948B004DE04093C60011271093110157
:1001C8000895D0900801C09009010E9420030E9460
:1001D8008B0049E44093C6000E948B0040E24093A4
:1001E800C6000E948B004DE34093C6000E948B001E
:1001F80040E24093C6000E9470010E948B0040E2DA
:100208004093C6000E948B0041E44093C6000E94C0
:100218008B004DE44093C6000E948B0040E540935C
:10022800C6000E948B0045E44093C6000E948B00E4
:1002380042E54093C6000E948B004AE04093C60006
:100248000E948B004DE04093C600112710931101C6
:100258000895D0900401C09005010E9420030E94D7
:100268008B0046E54093C6000E948B0040E2409315
:10027800C6000E948B004DE34093C6000E948B008D
:1002880040E24093C6000E9470010E948B0040E249
:100298004093C6000E948B0046E54093C6000E942A
:1002A8008B004FE44093C6000E948B004CE44093BF
:1002B800C6000E948B0044E54093C6000E948B0054
:1002C8004AE04093C6000E948B004DE04093C60070
:1002D80011271093110108950E948B00B191D0E36A
:1002E800BD0FB093C6000E948B000E948B00B19195
:1002F800D0E3BD0FB093C6000E948B000E948B0014
:100308004CE24093C6000E948B00B191D0E3BD0F30
:10031800B093C6000E948B000E948B00B191D0E37D
:10032800BD0FB093C6000E948B000E948B00B08165
:10033800D0E3BD0FB093C6000E948B003497089598
:100348000EE204B900E207B911E51CBD10E018B9C6
:1003580000001AE01EBD0E945B02000010E01EBDF6
:100368000E945B02000010E218B9000010E018B902
:10037800000019E01EBD0E945B0200001FE01EBDC8
:100388000E945B02000010E218B9000010E018B9E2
:1003980000001BE01EBD0E945B02000015E01EBDB0
:1003A8000E945B02000010E218B9000010E018B9C2
:1003B80000001CE01EBD0E945B02000011E01EBD93
:1003C8000E945B02000010E218B9000010E018B9A2
:1003D80000001FE01EBD0E945B02000010E01EBD71
:1003E8000E945B02000010E218B9000010E018B982
:1003F800000011E01EBD0E945B02000010E01EBD5F
:100408000E945B02000010E218B9000010E018B961
:10041800000012E01EBD0E945B0200001DE01EBD30
:100428000E945B02000010E218B9000010E018B941
:10043800000013E01EBD0E945B0200001DE01EBD0F
:100448000E945B02000010E218B9000010E018B921
:10045800000014E01EBD0E945B0200001BE01EBDF0
:100468000E945B02000010E218B9000010E018B901
:10047800000015E01EBD0E945B02000017E31EBDD0
:100488000E945B02000010E218B9000010E018B9E1
:10049800000016E01EBD0E945B02000010E01EBDB9
:1004A8000E945B02000010E218B900000895ADB583
:1004B800A7FFFDCF089510E018B9000016E01EBD93
:1004C8000E945B0200001EE31EBD0E945B0200004A
:1004D80010E218B9000010E018B9000015E01EBDC0
:1004E8000E945B02000019E01EBD0E945B02000032
:1004F80010E218B90000D0900401C09005010E94D4
:1005080020030E94DA02089510E018B9000016E0EE
:100518001EBD0E945B02000010E31EBD0E945B022C
:10052800000010E218B9000010E018B9000015E04A
:100538001EBD0E945B02000019E01EBD0E945B0206
:10054800000010E218B90000D0900801C09009011D
:100558000E9420030E94DA02089510E018B90000F2
:1005680016E01EBD0E945B02000017E61EBD0E9439
:100578005B02000010E218B9000010E018B9000092
:1005880015E01EBD0E945B02000019E01EBD0E941E
:100598005B02000010E218B90000D0900601C0907C
:1005A80007010E9420030E94DA02089510E018B99A
:1005B800000014E01EBD0E945B02000011911EBDE8
:1005C8000E945B02000010E218B9000010E018B9A0
:1005D800000013E01EBD0E945B020000119100EFB5
:1005E800100F1EBD0E945B02000010E218B9000047
:1005F80010E018B9000012E01EBD0E945B02000066
:1006080011911EBD0E945B02000010E218B90000A3
:1006180010E018B9000011E01EBD0E945B02000046
:1006280011911EBD0E945B02000010E218B9000083
:100638001081349711270895ECE0F1E077E2672FF5
:1006480070E1572F12D073E0672F78EE572F0DD037
:1006580070E0672F74E6572F08D070E0672F7AE0B4
:10066800572F03D0C082349708957727D61638F0CD
:1006780011F4C51620F0C51AD60A7395F7CF7193F1
:100688000895709100016091010150E04DE10E94D0
:100698000F0410930401009305010895709102015D
:1006A8006091030150E044E10E940F0430E02AE029
:1006B8000E941604109308010093090108951091EF
:1006C80004010091050133E028EE0E9416041093FE
:1006D8001201009313011F2D0E2D30E024E60E9415
:1006E8001604009314011F2D0E2D30E02AE00E94FD
:1006F800160400931501E0921601709108016091AB
:10070800090150911201409113010E940F041093A6
:10071800060100930701709108016091090150E0FA
:10072800409114010E940F0430E02AE00E94160450
:100738003091060120910701020F131F1093060143
:1007480000930701709108016091090150E0409100
:1007580015010E940F0430E024E60E94160430912F
:10076800060120910701020F131F10930601009341
:100778000701709108016091090150E0409116014C
:100788000E940F0433E028EE0E94160430910601FF
:1007980020910701020F131F109306010093070110
:1007A8000895709108016091090150E044E00E94A9
:1007B8000F0430E02AE00E941604109317010093FA
:1007C800180140E03CEC030F141F1093170100932D
:1007D80018010895109106010091070130E024E600
:1007E8000E941604109312010093130170911201D4
:1007F8006091130150E04EE00E940F0430E02AE0BF
:100808000E94160440E03CEC030F141F10931901DA
:1008180000931A010895649F8001749F100D569FDC
:10082800100D0895EE18FF1841E107C0EE1CFF1CDB
:10083800E216F30610F0E21AF30A001F111F4A9598
:10084800A9F700951095089508E00EBF0FEF0DBFAA
:10085800F8940E9435000E944A040E946B000E948E
:100868007E000E94A40178940E9439000E945200E0
:100878000E9445030E9452030E9463030E94D5030D
:100888000E94EE030E9490000C94380400E00AB91C
:1008980000EE0BB904E00093680000EE00936D00D1
:1008A8001895CF92CFB6CF92DF92EF92FF920F9327
:1008B8001F932F933F934F935F936F937F938F93E0
:1008C8009F93AF93BF935091190150938900509112
:1008D8001A01509388004091170140938B00409172
:1008E800180140938A00BF91AF919F918F917F919A
:1008F8006F915F914F913F912F911F910F91FF90B1
:10090800EF90DF90CF90CFBECF901895CF92CFB613
:10091800CF92DF92EF92FF920F931F932F933F9303
:100928004F935F936F937F938F939F93AF93BF93EF
:100938000091C60000931101BF91AF919F918F91D3
:100948007F916F915F914F913F912F911F910F91DF
:10095800FF90EF90DF90CF90CFBECF901895CF92B9
:10096800CFB6CF92DF92EF92FF920F931F932F9300
:100978003F934F935F936F937F938F939F93AF931F
:10098800BF9309B107FF0E94B10206FF0E948802C7
:1009980005FF0E945F02BF91AF919F918F917F9158
:1009A8006F915F914F913F912F911F910F91FF9000
:0C09B800EF90DF90CF90CFBECF9018954D
:00000001FF
